:020000040800F2
:1000000070590020A5030008C57300080D6600089C
:1000100089720008A91B0008019500080000000073
:10002000000000000000000000000000E1020008E5
:1000300031210008000000003D0300089D830008F6
:10004000BF030008BF030008BF030008BF03000888
:10005000BF030008BF030008BF030008BF03000878
:10006000BF030008BF030008BF030008BF03000868
:10007000BF030008BF030008BF030008BF03000858
:10008000BF030008BF030008BF030008BF03000848
:10009000BF030008BF030008BF030008BF03000838
:1000A000BF03000895850008BF030008BF030008D0
:1000B000BF030008A5850008BF030008BF030008B0
:1000C000BF030008BF030008BF030008BF03000808
:1000D000BF030008D1930008E5930008F9930008D6
:1000E00041210008BF030008BF030008BF03000848
:1000F000BF030008BF030008BF030008BF030008D8
:10010000BF030008BF030008B5850008BF0300084F
:10011000018E0008158E0008C5850008D9850008E5
:10012000BF030008BF030008BF030008BF030008A7
:10013000BF030008BF030008BF030008BF03000897
:10014000BF030008BF030008BF030008BF03000887
:10015000BF030008BF030008BF0300080D94000898
:10016000BF030008BF030008BF030008BF03000867
:10017000BF030008BF030008BF030008BF03000857
:10018000BF030008BF030008BF030008BF03000847
:10019000BF030008BF030008BF030008BF03000837
:1001A000BF030008BF030008BF030008BF03000827
:1001B000BF030008BF030008BF030008BF03000817
:1001C000BF030008BF03000800F002F800F078F851
:1001D0000AA090E8000C82448344AAF10107DA45A2
:1001E00001D100F06DF8AFF2090EBAE80F0013F07C
:1001F000010F18BFFB1A43F00103184728EE000057
:1002000048EE00000A444FF0000C10F8013B13F0D8
:10021000070408BF10F8014B1D1108BF10F8015B5F
:10022000641E05D010F8016B641E01F8016BF9D152
:1002300013F0080F1EBF10F8014BAD1C0C1B09D1A9
:100240006D1E58BF01F801CBFAD505E014F8016B1B
:1002500001F8016B6D1EF9D59142D6D370470000AD
:100260000023002400250026103A28BF78C1FBD8BF
:10027000520728BF30C148BF0B60704766290EF097
:100280003683642900F08281752900F07F81782906
:1002900000F0B881632900F0DB85732900F0E08568
:1002A000002070471FB50EF018FB00F0EFFD0400B2
:1002B000002000210DF016FDE0601FBD10B510BD3F
:1002C00000F000FF1146FFF7EDFF0AF019FD00F006
:1002D0001EFF03B4FFF7F2FF03BC09F08EFA000023
:1002E0002D4B19680868B0E8F04F80F30988BFF318
:1002F0006F8F4FF0000080F31188704700000000FE
:1003000008480068006880F308884FF0000080F318
:10031000148862B661B6BFF34F8FBFF36F8F00DFF3
:1003200000BF00BF08ED00E0DFF80C00016841F4F9
:1003300070010160704700BF88ED00E0EFF30980B5
:10034000BFF36F8F144B1A681EF0100F08BF20ED1B
:10035000108A20E9F04F106009B44FF0500072B6D7
:1003600080F31188BFF34F8FBFF36F8F62B60CF02D
:10037000B9FE4FF0000080F3118809BC19680868C5
:10038000B0E8F04F1EF0100F08BFB0EC108A80F3F9
:100390000988BFF36F8F70476C060020EFF305806C
:1003A000704700000948804709480047FEE7FEE71C
:1003B000FEE7FEE7FEE7FEE7FEE7FEE7FEE7FEE715
:1003C00004480549054A064B70470000B9840008F7
:1003D000C90100087053002070590020705500209A
:1003E00070550020704753EA020C00F069802DE937
:1003F000F04B4FF00006002B1FBFB3FA83F503FA52
:1004000005F424FA05F65E4012BF1643B2FA82F5EF
:1004100002FA05F4C5F120051EBF22FA05FC44EAE4
:100420000C04203556EA044C4FEA144418BF641CEF
:100430004FF000084FF00009904271EB030C39D3E4
:10044000002919BFB1FA81F701FA07F6B0FA80F76F
:1004500000FA07F6C7F120071EBF20FA07FC46EA9C
:100460000C062037B6FBF4FCA7EB0507103F07F09E
:100470001F0BCBF120060CFA0BFB2CFA06F644BF3F
:10048000B3460026202FA4BF5E464FF0000B5BEA68
:10049000060C08BF4FF0010B19EB0B09ABFB027CFC
:1004A00048EB0608C01B06FB02CC0BFB03CC71EB30
:1004B0000C01C1E70B46024641464846BDE8F08BB9
:1004C00013B54FF000004FF00001AFF30080BDE81E
:1004D0001C4070470FB4044910B503AA029800F0FD
:1004E000C3FC10BC5DF814FB4002002070B504464C
:1004F00085690068C10601D5302600E02026C007C6
:1005000007D070BDD4E9012130469047206A401CD5
:1005100020626D1EF6D570BD70B504468569007801
:10052000C00707D170BDD4E9012120209047206A7F
:10053000401C20626D1EF6D570BD70B50C46054698
:10054000012A05D02878800600D5EA69002302E058
:10055000012305E05B1C934202D2E05C0028F9D144
:10056000A869E618C01AA861286A184428622846B3
:10057000FFF7BCFF04E0D5E9012114F8010B904717
:10058000B442F8D32846FFF7C7FF70BD2DE9F0410C
:100590000646002410687529314616A510D0AFF321
:1005A0000080002802DA404213A507E031688A077C
:1005B00001D512A502E0490704D511A5012401E0E7
:1005C000AFF3008000210A2206F1240709E0B0FB06
:1005D000F2FCB0FBF2F302FB1C00303078541846FA
:1005E000491C0028F3D123462A463046BDE8F04195
:1005F00000F0BCB9000000002D0000002B0000003E
:100600002000000070B504460D4621461068AFF387
:1006100000802188090502D50F4A7A4402E00E4A7B
:100620007A440E32002104F1240305E000F00F06A5
:100630000009965D5E54491C0028F7D120780023FC
:10064000000704D5702D02D009B1022311322046D3
:10065000BDE8704000F08AB912E400002DE9F05FB7
:10066000894604464FF0000ADFF874B1FB44C0F835
:1006700020A02046E1688847002874D0252806D0AD
:10068000D4E901219047206A401C2062F1E700264E
:100690005F462046E16888472028054607DB312D64
:1006A00005D2781910F8200C08B10643F1E7B0071D
:1006B00001D526F00406C4F81CA00027C4F818A031
:1006C0002A2D09D0284609F091F838B304EB8708A1
:1006D000303DC8F8185019E059F8041B204604EBC7
:1006E00087029161E1688847012F054618D1E069CA
:1006F000002820DA26F020061DE0D8F8180000EBCC
:10070000800005EB40003038C8F818002046E1684A
:100710008847054609F06AF80028EED1012F0AD073
:100720002E2D08D12046E16888477F1C0546022F00
:1007300046F02006C4DBA069002803DA404246F0F8
:100740000106A061F00701D026F010066C2D0BD039
:10075000682D09D04C2D39D06A2D35D0742D35D067
:100760007A2D33D016E038E0E1682F4620468847DE
:10077000B842054609D16C2F26D04FF48060E1685D
:10078000064320468847054604E06C2F1AD04FF4F4
:10079000807006430DB3A5F14100192802D8203519
:1007A00046F400664A462946204626604E46FFF734
:1007B00065FD80B101280BD0F61D26F0070000F181
:1007C000080956E74020E4E78020D8E70020D6E774
:1007D00006F104094DE7284652E7206ABDE8F09F7C
:1007E000E8E30000032A40F2308010F0030C00F030
:1007F000158011F8013BBCF1020F624498BF11F85B
:1008000001CB00F8013B38BF11F8013BA2F1040213
:1008100098BF00F801CB38BF00F8013B11F003038B
:1008200000F02580083AC0F0088051F8043B083AEF
:1008300051F804CBA0E80810F5E7121D5CBF51F891
:10084000043B40F8043BAFF30080D20724BF11F80B
:10085000013B11F801CB48BF11F8012B24BF00F870
:10086000013B00F801CB48BF00F8012B704710B5E1
:10087000203AC0F00B80B1E81850203AA0E8185098
:10088000B1E81850A0E81850BFF4F5AF5FEA027C59
:1008900024BFB1E81850A0E8185044BF18C918C0C8
:1008A000BDE810405FEA827C24BF51F8043B40F869
:1008B000043B08BF7047D20728BF31F8023B48BF4E
:1008C00011F8012B28BF20F8023B48BF00F8012B8C
:1008D00070474FF000020429C0F0128010F0030CA2
:1008E00000F01B80CCF1040CBCF1020F18BF00F823
:1008F000012BA8BF20F8022BA1EB0C0100F00DB8D2
:100900005FEAC17C24BF00F8012B00F8012B48BF2F
:1009100000F8012B70474FF0000200B513469446D3
:100920009646203922BFA0E80C50A0E80C50B1F147
:100930002001BFF4F7AF090728BFA0E80C5048BF5B
:100940000CC05DF804EB890028BF40F8042B08BFF9
:10095000704748BF20F8022B11F0804F18BF00F8F5
:10096000012B704770477047704770472DE9F0477B
:100970000D4699469246044600F12408016888060F
:1009800004D5E06921F01001216000E00120A842B7
:1009900001DD471B00E00027A1697A1902EB09007D
:1009A000081AA0612078C00602D42046FFF79EFDF9
:1009B000002608E0D4E901211AF806009047206AD1
:1009C000401C761C20624E45F4DB2078C0060AD518
:1009D0002046FFF78BFD06E0D4E901213020904747
:1009E000206A401C2062381EA7F10107F4DC07E0F2
:1009F000D4E9012118F805009047206A401C2062C4
:100A0000281EA5F10105F3DC2046FFF785FD2078BF
:100A1000000602D50220BDE8F0870120FBE7704701
:100A20002DE9FF4F0C461E464FF0FF378BB0D2E941
:100A30000001DDF860800A908A46C1F30A5505B9C5
:100A40003D46002108464FF00000BAF1000F00F4C7
:100A5000400005DA00EB80004FF4400101EA50004D
:100A60004FEA9059B9F1010F00DDB9460A9850EAF2
:100A70004A000ED044F61050A5F2FF3545432F141E
:100A8000B8F1000F1ED07542291E1EDDC9F100020B
:100A90001CE0B8F1010F4FF0000001D0302103E05D
:100AA000F24305E02154401CB042FBDB30460022FB
:100AB000002121540B99C1F80880C1E900200FB032
:100AC000BDE8F08FBD1B6D1CDEE74A4600DA6942C7
:100AD00006A800F07DFA06AB93E8070003AB83E8B5
:100AE000070050460A9900F04FFB8DE80700A0F57B
:100AF00000501F3800900398002D0ADD42F21F01BC
:100B00004A460844002303A90390684600F0B8FD54
:100B100009E0A0F500504A461F38002303A90390BE
:100B2000684600F0C2FD8DE807000004000C03D009
:100B30004FF0FF30410800E01046B8F1000F03D03D
:100B40000022009215461EE0751E05D400F0A2F9A1
:100B5000303262556D1EF9D5B3460122084302D0EA
:100B600000227F1C04E02078302801D100227F1E63
:100B7000002A099784D01DE0112D07DA00F08AF9C8
:100B8000303262556D1C50EA0102F5D1084302D0A3
:100B90000098C8B10EE00021681E05E0235C625C8D
:100BA00063542254401E491C8142F7DBAB46A81B0C
:100BB000401E0990002004F80B000B98099AC0F819
:100BC0000880C0E9002B7AE711264FF0000857E7AC
:100BD0002DE9F04F88460446D21D22F0070191B05E
:100BE000D1E90001CDE90A0108F0C2FD02460B98E7
:100BF000C00F01D02D2007E02068810701D52B20F0
:100C000002E0202101EAC000032A099001D0072A4E
:100C100005DB03464146204600F09AF90BE12078B7
:100C2000800601D5E06900E00620B8F1650F814635
:100C300006D0B8F1660F18D0B8F1670F70D131E067
:100C40000020B9F1110F009001DB112301E009F13F
:100C500001030AAA01A90CA8FFF7E2FEDDE90C7066
:100C6000002609F10105834647E001204B4600902C
:100C70004FF000470AAA01A90CA8FFF7D1FEDDE951
:100C80000DB00C995D46002610B909F101000D1850
:100C9000B9EB050003D4C0F1FF3609F10105A5EB5E
:100CA00009002BE0B9F1010F01DA4FF00109002032
:100CB000B9F1110F0090484601DD112300E0034611
:100CC0000AAA01A90CA8FFF7ABFEDDE90C704D469E
:100CD00000268346207800070AD4AB4500DA5D463B
:100CE00001A8012D04DD411911F8011C302907D09C
:100CF0004F4502DA17F1040F04DA012082460FE0B3
:100D00006D1EEEE7002F02DCED1B3E4403E0781C75
:100D1000A84200DD7D1CB81B00F1010A4FF000471E
:100D20002078000703D4AA4501DB4FF0FF3A0021E9
:100D3000B7F1004F0DF143088DF8431024D0022085
:100D40002B23002F01DA7F422D230A21021EA0F15E
:100D5000010000DC5FB197FBF1FC97FBF1F201FBB6
:100D60001C7C17460CF1300C08F801CDEEE7A8F119
:100D7000010003702188090501D5452100E06521A6
:100D8000A0F1010800F8011C09980FA9A1EB0807C0
:100D9000FF1D00B10120411901EBEA70A16938443F
:100DA000081A401EA0612078C00602D42046FFF732
:100DB0009DFB099828B1D4E901219047206A401C85
:100DC00020622078C00622D52046FFF78FFB1EE068
:100DD000002E04DBB34502DD01A8805D00E0302079
:100DE000D4E901219047206A401C2062761CAAF1B8
:100DF00001005FEA000A0AD100F048F8C068016803
:100E0000405CD4E901219047206A401C2062281EE2
:100E1000A5F10105DCDC07E0D4E9012118F8010B9C
:100E20009047206A401C2062381EA7F10107F3DCBE
:100E30002046FFF771FB032011B041E610B543696E
:100E400013B1AFF3008001E0FFF777FB012010BD85
:100E5000127800F124010A7000224A700122EDE7A5
:100E600011684FF0FF32E9E7074B70B50D467B4440
:100E700000F05BF80446284600F01CF910B14FF072
:100E8000FF3070BD204670BDAF980000004870472D
:100E90003053002030B5B0F10A024FEA900E71F1E4
:100EA00000034EEA817EB0EB0E0061EB91014FEA48
:100EB000101E4EEA017E10EB0E0041EB11114FEABD
:100EC000102E4EEA016E10EB0E0041EB11214FEA9D
:100ED000104E4EEA014E10EB0E0041EB114140184E
:100EE00041F100014FEAD00040EA41704FEAD101E0
:100EF00010EB80054FEA810444EA907444EB01044E
:100F00006D1944EB0404521BA3414FF0000348BF8A
:100F10000A3200D530BD401C41F1000130BD000057
:100F200001694A1C02610878704700B58FB0CDE9AD
:100F300001310021059105497944CDE9031011469D
:100F40006846FFF78BFB0FB000BD0000E5FFFFFF19
:100F50002DE9F0411F46044603260168072A01F4E3
:100F6000006004DB08B116A505E016A503E008B192
:100F700015A500E015A521F010002060A069C01E95
:100F8000A0610FB1401EA0612046FFF7AFFA4FB13C
:100F9000D4E9012138469047206A401C2062C01CD9
:100FA000206206E0206AFAE7D4E9012115F8010B76
:100FB0009047761EF8D22046FFF7AEFABDE8F081E2
:100FC0004E414E006E616E00494E4600696E6600ED
:100FD0002DE9F047814616468AB0354878440DC859
:100FE0008DE80D0032487844801C03AC0DC884E8BD
:100FF0000D0041F69B300844372190FBF1F290FB45
:10100000F1F5A5F1800501FB12041B3C02D56442F9
:10101000012000E00020DFF898A080460027FA4475
:10102000AAF1BE0A0EE0E0070AD03246684607EB96
:10103000470101230AEB810100F037FB8DE807002F
:1010400064107F1C002CEED1194F7F44AE3F19E095
:10105000E80715D007EB04100DF1180A90E80E0010
:101060008AE80E00C068F04201D198190890324613
:10107000012306A903A800F018FB03AB83E80700CF
:101080006D10641C002DE3D14FF001033246694618
:10109000B8F1000F03A802D000F0F2FA01E000F06E
:1010A00004FBC9E90001C9F808200AB0BDE8F087CF
:1010B00008DB0000007B00F08000704700487047AC
:1010C000105300207546FFF7F9FFAE46050069464C
:1010D000534620F00700854618B020B5FFF770F999
:1010E000BDE820404FF000064FF000074FF0000829
:1010F0004FF0000B21F00701AC46ACE8C009ACE8AA
:10110000C009ACE8C009ACE8C0098D46704710B50D
:101110000446AFF300802046BDE81040FFF7D9B881
:101120004FF0013C50F8042B51F8043B9A4215D182
:10113000A2EB0C03934313EACC130BD150F8042B0E
:1011400051F8043B9A4209D1A2EB0C03934313EAF2
:10115000CC13E7D04FF00000704700BFD01A01BA9F
:10116000B1FA81F101F0180122FA01F0CB40C1F18E
:101170002001DBB2C0B2C01A2CFA01F3D11A91439C
:1011800011EAC311E6D170475FEA400C08BF91F045
:10119000000F4FEA8C234FEAC12243EA51514FEA34
:1011A0001C5018BF00F5F0404FEA300018BF41F066
:1011B00000415FEA6C5C00F02980BCF1FF3F08BF92
:1011C00040F080407047130C06BF12044FF0100C23
:1011D0004FF0000C130E04BF12020CF1080C130F99
:1011E00004BF12010CF1040C930F04BF92000CF128
:1011F000020CD30F04BF52000CF1010C11464FF04A
:101200000002A0F11F00A0EB0C00704711F0004F8E
:1012100008BF704731F000413FF4D5AF0B0C06BF5B
:1012200009044FF0100C4FF0000C0B0E04BF090224
:101230000CF1080C0B0F04BF09010CF1040C8B0F0F
:1012400004BF89000CF1020CCB0F04BF49000CF164
:10125000010CCCF12003A0EB0C0022FA03F302FAFC
:101260000CF241EA030100F10100704720F07F4CCD
:1012700080EA030023F07F47ACEB070303F57C53C0
:1012800000F0004003F1FF032DE980494FEA154BC0
:1012900009B44FEA144325EA0B4E24EA03480FF23F
:1012A000042606EB132749083E785FEA320203FB67
:1012B0000667C7F5000707FB06F64FEA54374FEA03
:1012C000D64606F1020607FB066CCCF1005C4FEA3D
:1012D0001C472CEA074C07FB06F40CFB06F504EB55
:1012E00015464FEA961634BF00204FF000404FEAF3
:1012F000D13706FB07FC4FEA1C4C0CFB0BF7D21B4B
:1013000003FB0CF761EB07010CFB0EF7B0EB07409A
:1013100072EB17420CFB08F734BFA2EB0742B2EBAB
:10132000074261EB17414FEA0C444FEA910706FB75
:1013300007FC4FEA1C4C0CFB0BF7B0EBC74072EB01
:10134000573203FB0CF734BFA2EBC742B2EBC742E4
:1013500061EB57310CFB0EF7B0EBC70072EB577225
:101360000CFB08F734BFA2EBC702B2EBC70261EB7C
:101370005771039F4FEA816141EA921104EBCC045B
:101380004FEAD1374FEA826206FB07FC42EA90122D
:101390004FEA80604FEA1C4C0CFB0BF7D21B03FB9F
:1013A0000CF761EB07010CFB0EF7B0EB074072EB9B
:1013B00017420CFB08F734BFA2EB0742B2EB07421F
:1013C00061EB17414FEA8C554FEA910704EB9C24DF
:1013D00006FB07FC4FEA1C4C0CFB0BF7B0EBC740BD
:1013E00072EB573203FB0CF734BFA2EBC742B2EBF0
:1013F000C74261EB57310CFB0EF7B0EBC70072EB45
:1014000057720CFB08F734BFA2EBC702B2EBC7025E
:1014100061EB577115EB4C254FEA816141EA92115E
:101420004FEA82624FEAD13742EA901206FB07FC8C
:1014300044F100044FEA80604FEA1C4C0CFB0BF7B0
:10144000D21B03FB0CF761EB07010CFB0EF7B0EBB3
:10145000074072EB17420CFB08F734BFA2EB0742C0
:10146000B2EB074261EB174115EB1C154FEA8131D6
:1014700041EA92414FEA823242EA90424FEA80309A
:101480004FEA0C7644F1000448EA03434EEA0B4865
:101490004FF0000EB2EB080C71EB030724BF62465D
:1014A00039464EEB0E0E4FF0000B001852414941E9
:1014B0004BEB0B0BB2EB080C71EB03077BF1000B52
:1014C00024BF624639464EEB0E0E4FF0000B00185B
:1014D000524149414BEB0B0BB2EB080C71EB03078C
:1014E0007BF1000B24BF624639464EEB0E0E51EAEB
:1014F000020718BF46F0010616EB0E7655F1000202
:1015000054F1000103D5BDE88901BDE80088BDE8BC
:101510008901BDE80048B619524141EB0101A3F130
:101520000103704780807F7E7D7C7B7A7978777637
:1015300076757473727171706F6E6E6D6C6C6B6AB0
:101540006A6968686766666564646363626161604E
:10155000605F5F5E5E5D5D5C5C5B5B5A5A595958CB
:101560005857575656555555545453535252525135
:10157000515050504F4F4F4E4E4D4D4D4C4C4C4B8B
:101580004B4B4A4A4A4949494848484747474746D2
:10159000464645454544444444434343434242420E
:1015A00042414141002B9C4630D477002BD01CB5E2
:1015B0004FEA370703B44FF010004FF01001BAF1B3
:1015C000000F06D0BCF1000FDCBF40F0080040F077
:1015D00008014FF000000FBCBDE810400BF1010BFB
:1015E000BBF1010F08BF5FEA170722BF12F101022A
:1015F00011F101014FF0004143F1000300F0004000
:1016000043EA00007047F9D35708D0E746EA064698
:1016100013F1400F4FEA16461FDD13F1200FDFBF15
:1016200016430A46002120335B42BED0C3F1200797
:1016300046EA064602FA07F74FEA164646EA070662
:10164000C3F1200722FA03F201FA07F721FA03F1A6
:101650004FF0000342EA0702A7E746EA020646EA1D
:1016600006464FEA164646EA0106BCBF46EA06466B
:10167000360C4FF000034FF000024FF0000194E7EA
:101680002DE9804C9A46934670B491E8380007C81B
:1016900031EA400C48BF34EA430C03D5FFF7E6FDBE
:1016A000FFF780FFF0BCBDE8008C2DE9804C9A4626
:1016B000934670B491E8380007C810F0804F08BF17
:1016C00013F0804F03D100F005F8FFF76BFFF0BC7B
:1016D000BDE8008C20F07F4780EA030023F07F4CB8
:1016E00007EB0C03A3F57C5300F00040A3F1FE03CD
:1016F00092F0000F00F0B38095F0000F00F07780BB
:101700002DE901494FEA11404FEA144621EA004809
:1017100000FB06FC24EA064708FB06F607FB08F870
:1017200000FB07F718EB06484CEB164C4FEA124B40
:1017300018EB07484FEA15464CEB174022EA0B4ED0
:101740000BFB06FC25EA06470EFB06F607FB0EFE22
:101750000BFB07F71EEB064E4CEB164C4FF000064A
:101760001EEB074E4CEB174B18EB0B0840F100003B
:1017700018EB0E0B58EB000840F100008F1A4FF0E9
:1017800000013CBFC943661B14BFB5EB040C00212C
:101790003CBFC943F61B4FEA17444EEA8E0E27EAB8
:1017A00004454FEA1C4704FB07622CEA074C05FB83
:1017B00007F70CFB05F604FB0CFC16EB074642EBA7
:1017C000174216EB0C4642EB1C421BEB060658EB8D
:1017D0000202414146EA9E0601D5BDE80189B619DB
:1017E000524141EB0101A3F10103BDE801894FEA38
:1017F00014454FEA114724EA054621EA074C05FB48
:1018000007F406FB07F70CFB06F105FB0CFC11EBDC
:10181000074144EB17444FEA124711EB0C4144EBEC
:101820001C4422EA074C05FB07F206FB07F70CFBFA
:1018300006F605FB0CFC16EB074642EB174216EBCF
:101840000C4642EB1C456A1854F1000148BF704732
:10185000B619524141EB0101A3F10103704795F024
:10186000000F37D04FEA11424FEA144721EA0246EF
:1018700024EA074C02FB07F106FB07F70CFB06F412
:1018800002FB0CFC14EB074441EB17414FEA1547F0
:1018900014EB0C4441EB1C4125EA074C02FB07F515
:1018A00006FB07F70CFB06F602FB0CFC16EB0746E3
:1018B00045EB174516EB0C4645EB1C42121951F14E
:1018C000000148BF7047B619524141EB0101A3F135
:1018D000010370474FEA14454FEA114724EA0546D1
:1018E00021EA074C05FB07F106FB07F70CFB06F2A4
:1018F0004FF0000605FB0CFC12EB074241EB1741D1
:1019000012EB0C4251EB1C4148BF7047921841EB5F
:101910000101A3F10103704710B50B48006800688E
:10192000006840F020000849096809680860002044
:1019300006F028FC012006F019FC012211030348DF
:1019400001F002F910BD0000340000200000024048
:101950002DE9F04104460D46052601270F2C04DD34
:10196000022000F017FEBDE8F0811DB9032000F051
:1019700011FEF8E707FB05F087B21248047000F08B
:10198000D9FB5521104881714171C6710621017240
:1019900044726C21384600F00DFF0B4988726821B3
:1019A000384600F007FF0849C872FF23B21C0868D8
:1019B000491D04F0D3FCB11C0348401DFEF789FF0C
:1019C00000BFD0E79D000020A000002070B50446B5
:1019D0000D46FF2C01DC002C03DA022000F0DAFDBA
:1019E00070BD00F0A7FB47210D4802790079401C2B
:1019F0000B4B1871581D8154204600F0B7FA462150
:101A0000074802790079401C054B1871581D815414
:101A1000284600F0ABFA06F06BFB00BFE0E70000E1
:101A2000A00000201FE0104890F8B90010B90A206B
:101A300009F0E2FA0C4890F8BA00A0B90A4890F808
:101A4000B90080B1052009F0D7FA08480068401DA8
:101A50000649086008460068B0F5FA7F03DB0020FD
:101A6000014981F8B900DEE7B002002070020020D1
:101A70002DE9F04107460A2009F0BEFA63E000268E
:101A80003B480068012819D100BF00F08DFE0546D3
:101A900038480088401B04B2962014FB00F61CB99D
:101AA00035A0FEF717FD4FE00022314610460AF040
:101AB0002BF9052009F0A0FA002CE6DA2C48006882
:101AC000401CE8B900BF00F06FFE0546294631A072
:101AD000FEF700FD27480088401B04B2962014FB47
:101AE00000F61CB924A0FEF7F5FC2DE0002271429F
:101AF00010460AF009F9052009F07EFA002CE2DA16
:101B00001B48006802281DD100BF00F04DFE0546AD
:101B1000294620A0FEF7DEFC16480088401B04B2D0
:101B2000962014FB00F61CB913A0FEF7D3FC0BE0C3
:101B30000022114630460AF0E7F8052009F05CFA69
:101B4000002CE2DA00BF9AE70022114610460AF0A4
:101B5000DBF8124800F002FA012011490860002069
:101B60000BF0B0F900200F490860BDE8F0810000DB
:101B7000E4030020E00300200A0920B3ACC9F9B255
:101B8000A86F766572206F766572206F7665722118
:101B90000000000025640D0A0000000088130020EA
:101BA000F00300201404002000BFFEE770B52DED07
:101BB000028B07F085FCD648007800F03FFDD44941
:101BC00008709FEDD40AB0EE408A08460078FF28DE
:101BD0007ED00846007800EBC001CF4800EB410002
:101BE0008178CB48007800EBC002CB4800EB420084
:101BF00000790144C648007800EBC002C64800EBFB
:101C0000420080790144C248007800EBC002C2481B
:101C100000EB4200007A0144BD48007800EBC002AE
:101C2000BD4800EB4200807A0144B948007800EBDF
:101C3000C002B94800EB4200007B0144B448007880
:101C400000EBC002B44800EB4200807B0844C1B204
:101C5000AF48007800EBC002AF4800EB4200C07B09
:101C600081427DD1012441E19FEDAA0AB0EE408A74
:101C70009FEDA80AF0EE408A0020A8490870A44809
:101C8000007800EBC001A44800EB4100005D08288B
:101C900067D2DFE800F0660493B7DDEFEDEC0020DB
:101CA00029E09B49097801EBC1029B4901EB420104
:101CB00089788140C1F3C01100EE101AB8EE400AD5
:101CC000974901EB8001D1ED000A20EE200A00E0E7
:101CD0001BE1F0EE408AF5EEC08AF1EE10FA04D076
:101CE0008E490978491C8D4A117038EE280AB0EEE9
:101CF000408A411CC8B20828D3DB8A4880ED028A9A
:101D000086480078874948700846407806281DDADA
:101D100085480068E8B108464078052819DB084680
:101D200090ED020AB5EEC00AF1EE10FA02DD90ED78
:101D3000020A04E07B4890ED020AB1EE400AF1EE9F
:101D40000C0AB4EEE00AF1EE10FA02DB012075494C
:101D500088707548006810B372484078052801E023
:101D6000C7E0BFE01BDB6F4890ED020AB5EEC00A8A
:101D7000F1EE10FA02DD90ED020A04E0694890ED00
:101D8000020AB1EE400AF1EE0C0AB4EEE00AF1EEFE
:101D900010FA04DB9FED5F0A624880ED020A614899
:101DA000807850B15F484078022806DC00205D4909
:101DB00088700846C078401CC87094E05448007889
:101DC00000EBC001544800EB4100007957490880FE
:101DD00000200BE001218140544A1288114019B1C2
:101DE0000121534A42F82010411CC8B20828F1DBF7
:101DF000002504E029464F4808F068FE6D1C082DB8
:101E0000F8DB70E04248007800EBC001424800EB8C
:101E1000410080794849088000200BE00121814081
:101E2000454A1288114019B10121444A42F8201054
:101E3000411CC8B20428F1DB002504E029464048D3
:101E400008F026FE6D1C042DF8DB00F04BF94AE08B
:101E50002F48007800EBC0012F4800EB4100007ACA
:101E60003849086008460068374988613BE027E048
:101E700017E0FFE72648007800EBC001264800EB9A
:101E80004100807A31490860084600682E49C861DF
:101E900008460AF02DF8002229492B4808F0ECFBEF
:101EA00021E01B48007800EBC0011B4800EB41001B
:101EB000007B27490860084600682649886112E0CF
:101EC0001348007800EBC001134800EB4100807B11
:101ED00021490860084600681E49C86108460AF0A2
:101EE00007F800E000BF00BFA01CC4B20E2C7FF7B3
:101EF000BBAE0749097801EBC102074901EB42007B
:101F00001221FEF7E6FC07F07BFCBDEC028B70BDF6
:101F10007203002000000000B402002071030020C2
:101F200078020020B0120020141600204402002085
:101F30007C1200200814002046020020A01200207D
:101F4000C8130020500200208813002054020020F3
:101F50005C02002048140020600200200021016083
:101F600041608161C161C160704700003EB50022DF
:101F7000009201920292002148B90023174A147975
:101F80001279521C154D2A716A1D13553EBD0EE083
:101F90000A2290FBF2F302FB1302303214B20A461B
:101FA0004B1C19B22DF812400A2290FBF2F00028C7
:101FB000EED14A1E11B20CE00A464B1E19B21DF8B2
:101FC0001230064A14791279521C044D2A716A1D86
:101FD00013550029F0DA00BFD8E70000A000002068
:101FE00010B50446012006F0C7F80121084609F0A3
:101FF0005DFF0121022009F059FF012C1CD1364858
:1020000000F0CEFB022861DC002211466FF0770061
:1020100009F07AFE02E00A2008F0EEFF2E4800F0F8
:10202000BFFB0228F7DD00221146104609F06CFEC6
:102030000A2008F0E1FF49E0022C20D1264800F0F8
:10204000AFFB052842DC00226FF07701104609F053
:102050005BFE02E00A2008F0CFFF1F4800F0A0FB63
:102060000528F7DD4FF47A7008F0C6FF002211460C
:10207000104609F049FE0A2008F0BEFF26E0032CB6
:1020800024D1164800F08CFB02281FDC144800F015
:1020900087FB02281ADC00227821104609F034FE62
:1020A00002E00A2008F0A8FF0C4800F079FB0228A3
:1020B00004DC0B4800F074FB0228F2DD002211461C
:1020C000104609F021FE0A2008F096FF00210120A9
:1020D00009F0ECFE10BD0000B0120020F812002044
:1020E00040130020002019E00E49095C69B90E492F
:1020F00051F8201001290FD10C49095C491C0B4AE9
:1021000011540121074A115406E0074951F82010E3
:1021100011B90021034A1154811CC8B20328E3DB22
:102120007047000049020020D41300204C02002018
:102130007047000000200149087070479C00002093
:1021400010B507F043FD4FF4005000F0DBFB10BD6D
:1021500001200149087070479C00002001200149BE
:10216000088070476000002070B52DED068B064694
:1021700008F0B2F8E9480068E94908609FEDE90B0A
:1021800053EC102BE94890ED000B51EC100B0CF0C8
:10219000CDF811D24FF0FF30E54908609FEDE50B17
:1021A00053EC102BE14890ED000B51EC100B0CF0B0
:1021B000F9F8DE4A03C20FE09FEDE00B53EC102B61
:1021C000DA4890ED000B51EC100B0BF0DFFDD74A15
:1021D00003C20120D64908609FEDD80B53EC102BA9
:1021E000D84890ED000B51EC100B0BF0DBFF7CD1CD
:1021F00000F094FA58B90020D34981F84400012036
:10220000D24981F84400D24981F8440009E0002015
:10221000CD4981F84400CD4981F84400CC4981F88A
:10222000440099E0BD480068BD490968401A0A2881
:1022300027D99FEDC20B53EC102BC64890ED000B35
:1022400051EC100B0CF0AEF841EC1A0B9FEDC20BE9
:1022500053EC102B0BF04EFE41EC190BB34890EDF4
:10226000000B53EC102B51EC190B0CF0CFF941EC97
:10227000180B9FEDBB0B53EC102B0CF057F800D252
:102280002FE19FEDAE0B53EC102BB24890ED000BFD
:1022900051EC100B0CF086F841EC1A0B9FEDAE0BD5
:1022A00053EC102B0BF026FE41EC190B9F4890EDE0
:1022B000000B53EC102B51EC190B0CF0A7F941EC6F
:1022C000180BB0EE480AF0EE680A07F085FAA64847
:1022D00080ED000BA54890ED000B53EC102BA248AD
:1022E00090ED000B51EC100B00E036E00CF05AF8CA
:1022F0009F4A03C29E4890ED000B51EC100B0BF06F
:102300008DFF054604F0A4F904460BF0E4FF41EC10
:10231000180B9FED980B53EC102B0CF043F8944ADC
:1023200003C2834800680BF0D6FF41EC190B9048BC
:1023300090ED000B53EC102B51EC190B0CF032F814
:1023400041EC180B0BF06AFF04460022114609F01D
:10235000DBFC052008F050FE64E79FED880B53EC92
:10236000102B784890ED000B51EC100B0BF01AFF7E
:102370007ED100F0D3F958B90120734981F84400A7
:102380000020724981F84400714981F8440009E055
:1023900000206D4981F844006C4981F844006C4983
:1023A00081F844009BE05D4800685D490968401A77
:1023B000B0F5967F00D994E05848006858490968FC
:1023C000401A0A2827D99FED5D0B53EC102B61486A
:1023D00090ED000B51EC100B0BF0E4FF41EC1A0BED
:1023E0009FED5D0B53EC102B0BF084FD41EC190BB2
:1023F0004E4890ED000B53EC102B51EC190B0CF0E8
:1024000005F941EC180B9FED560B53EC102B0BF01C
:102410008DFF00D265E09FED490B53EC102B4D482A
:1024200090ED000B51EC100B0BF0BCFF41EC1A0BC4
:102430009FED490B53EC102B0BF05CFD41EC190B9D
:102440003A4890ED000B53EC102B51EC190B0CF0AB
:10245000DDF841EC180BB0EE480AF0EE680A07F020
:10246000BBF9414880ED000B404890ED000B00E0C7
:1024700036E053EC102B3C4890ED000B51EC100B68
:102480000BF090FF3A4A03C2394890ED000B51EC33
:10249000100B0BF0C3FE054604F0DAF804460BF00F
:1024A0001AFF334A03C2224800680BF014FF41ECC4
:1024B000190B2F4890ED000B53EC102B51EC190B1E
:1024C0000BF070FF41EC180B0BF0A8FE0446002245
:1024D0002146104609F018FC052008F08DFD62E742
:1024E00000BF00221146104609F00EFC0021012019
:1024F00009F0DCFC0021022009F0D8FC4FF4487000
:1025000008F07AFD01201F49086000200AF0DAFC7B
:1025100000201D490860BDEC068B70BD1C02002028
:10252000B80300200000000000000000D0030020DD
:1025300028040020000000000000F0BF00000000A0
:102540000000F03FC8030020B0120020F812002065
:1025500040130020A00300200000000000004940BC
:10256000000000000000E03FF8030020C00300204E
:1025700000040020000000000000F83F0000000000
:1025800000000040EC0300201804002072B600BFD9
:10259000FEE7000010B50446012C03D10CA0FDF7A6
:1025A00099FF14E0022C03D10DA0FDF793FF0EE07C
:1025B000032C03D10FA0FDF78DFF08E0042C03D1FD
:1025C00013A0FDF787FF02E017A0FDF783FF10BD02
:1025D000BDC7B6C8D6B5B3ACCFDED6C60D0A0000AF
:1025E000B6AFD7F7D7E9B1E0BAC5B3ACCFDED6C640
:1025F0000D0A0000CAD5B5BDB5C4B6AFD7F7D7E947
:10260000D6B4D0D0D6B8C1EED3D0CEF30A000000F5
:10261000D4CBD0D0B4CECAFDB2BBC4DCCEAACEDE01
:10262000CFDE0D0A00000000B6E6BFD8B7A2C9FA97
:10263000CEB4D6AAB4EDCEF30D0A000001460A29A5
:102640000AD1002101EBC102114800EB42004078A1
:1026500001281BD108467047491C01EBC1020C48F8
:1026600000EB42004078012801D10846F3E7002042
:102670000AE000EBC003064A02EB43025278012A4B
:1026800000D1E8E7421CD0B20A28F2DB0120E2E7E1
:10269000B402002001460148405C70474C02002013
:1026A0000146481C0A2801D1002100E0491C01EB29
:1026B000C1020A4810F8120008B908467047002005
:1026C00008E000EBC003054A12F8132002B9F5E751
:1026D000421CD0B20A28F4DB0120EFE7B40200204C
:1026E0000148006870470000740000200146074858
:1026F00050F82100012800D17047044850F821000B
:1027000008B90020F8E70020F6E70000E8130020F1
:1027100001480078704700004D040020014800780F
:1027200070470000080400200146074850F82100C7
:10273000012800D17047044850F8210008B9002052
:10274000F8E70020F6E70000281400200148007890
:10275000704700009C000020017869B901210170D8
:102760000D49496A0D4A126842F2107303FB0211C7
:10277000816041600021C160816841600649496A09
:10278000064A126842F2107303FB02118160D0E91D
:102790000121891AC1607047001000401C0200200E
:1027A00001464878704700000148406870470000C3
:1027B000881300200246682901D0482901D110124F
:1027C00070476C2901D04C2901D1D0B2F8E7002024
:1027D000F6E70246100208437047000000B50848BB
:1027E000406890ED000A0648D0ED030A30EE200A5A
:1027F000F0EE401AB0EE610A07F018F800BD0000D4
:102800003400002070B50446A56D00F0A3F906461B
:1028100094F83500022808D08020606500BF0020B1
:1028200084F8340000BF012070BD2068006820F0EB
:102830001600216808602068406920F08000216847
:102840004861206C08B9A06C28B12068006820F0AD
:102850000800216808602068006820F001002168F5
:1028600008600FE000F076F9801B05280AD92020C7
:10287000606500BF002084F8340000BF032084F8A6
:102880003500D1E72068006800F001000028E9D198
:1028900094F85C103F208840A86000BF002084F8B6
:1028A000340000BF012084F835000020BCE7014659
:1028B00091F83500022803D0802048650120704738
:1028C000052081F835000868006820F001000A68DA
:1028D00010600020F3E7000070B5044600F03AF9FC
:1028E00006462546681C10B104480078054400BF20
:1028F00000F030F9801BA842FAD370BD68060020B2
:102900007047000010B5044604480068204020B11C
:10291000024804602046FFF7F3FF10BD143C01405D
:10292000F8B502460B46002100250024002000BF18
:10293000E4E0012606FA01F51E6806EA0504AC4249
:1029400071D15E68012E08D05E68022E05D05E68E7
:10295000112E02D05E68122E13D190684F0003260C
:10296000BE40B0434F00DE68BE40304390605068C8
:1029700001268E40B0431E79C6F300168E403043C8
:102980005060D0684F000326BE40B0434F009E68A1
:10299000BE403043D0605E68022E02D05E68122EC8
:1029A00013D1CF0802F1200656F827004E07F70E84
:1029B0000F26BE40B0434F07FF0E1E69BE40304396
:1029C000CF0802F1200646F8270010684F000326C2
:1029D000BE40B0431E7906F003064F00BE403043B0
:1029E00010605E6806F08056B6F1805FA8D100BF27
:1029F000444E366846F48046424F3E603E46366856
:102A000006F48046009600BF00BF3F4E8F0856F880
:102A100027008E07370F0F26BE40B0433B4EB24211
:102A200002D100262EE068E0394EB24201D10126E3
:102A300028E0384EB24201D1022623E0364EB2429F
:102A400001D103261EE0354EB24201D1042619E021
:102A5000334EB24201D1052614E0324EB24201D1CA
:102A600006260FE0304EB24201D107260AE02F4E73
:102A7000B24201D1082605E02D4EB24201D109260D
:102A800000E00A268F073F0FBE4030431E4E8F08DE
:102A900046F82700274E3068A0435E6806F480366B
:102AA000B6F5803F00D12043224E3060361D30689D
:102AB000A0435E6806F40036B6F5003F00D120431F
:102AC0001C4E361D3060361D3068A0435E6806F42B
:102AD0008016B6F5801F00D12043164E08363060B0
:102AE000361D3068A0435E6806F40016B6F5001F78
:102AF00000D120430F4E0C363060491C1029FFF4E2
:102B000018AFF8BD443802400838014000000240C8
:102B10000004024000080240000C02400010024085
:102B20000014024000180240001C02400020024035
:102B300000240240003C0140024613690B400BB1E7
:102B4000012000E0002070470AB1816101E00B0420
:102B500083617047014800687047000060060020EC
:102B60000348006803490978084401490860704730
:102B7000600600206806002010B50848006840F490
:102B8000007006490860032000F0C2F80F2000F032
:102B900007F800F049F8002010BD0000003C02409A
:102BA00070B588B004460025002600222146372053
:102BB00000F070F8372000F05DF800BF164800689C
:102BC00040F02000144908600846006800F020002A
:102BD000019000BF00BF02A903A800F031FD00F082
:102BE00057FD45000D48B5FBF0F0461E0C480D4959
:102BF000086040F2E7310B48C16046600021016186
:102C0000816001F003F920B9064801F0DFF908B04E
:102C100070BD0120FBE700004038024040420F0039
:102C200000140040BC0E002008B500BF104800682A
:102C300040F080500E4908600846006800F080505F
:102C4000009000BF00BF00BF081D006840F4804036
:102C5000091D08600846006800F48040009000BF2D
:102C600000BF00220F21901E00F014F808BD0000E4
:102C70004038024001460846002809DB00F01F03E7
:102C800001229A4043099B0003F1E023C3F800218D
:102C900000BF70472DE9F05F80460D4616460027BD
:102CA00006F07EFD074639462A46334601F0070006
:102CB000C0F1070ABAF1040F02D94FF0040A01E08B
:102CC000C0F1070AD14600F1040ABAF1070F02D297
:102CD0004FF0000A01E0A0F1030AD4464FF0010AC8
:102CE0000AFA09FAAAF1010A0AEA020A0AFA0CFA2D
:102CF0004FF0010B0BFA0CFBABF1010B0BEA030BD2
:102D00004AEA0B042146404606F052FDBDE8F09F1A
:102D100000BF00F00702064B19684FF6FF03194089
:102D2000044B0B4343EA0221014B196000BF70477B
:102D30000CED00E00000FA0538B5002400BF204883
:102D4000006840F080501E4908600846006800F0A6
:102D50008050009000BF00BF1A48006840F48030E7
:102D600018490860FFF7F6FE044607E0FFF7F2FE99
:102D7000001BB0F57A7F01D9032038BD11484068A7
:102D800000F48030B0F5803FF0D10E48006840F488
:102D900000300C490860FFF7DDFE044607E0FFF74E
:102DA000D9FE001BB0F57A7F01D90320E5E705487D
:102DB000406800F40030B0F5003FF0D10020DCE7BF
:102DC00040380240007000402DE9F84304460026D8
:102DD00000250027A846A946207800F0010088B108
:102DE00000BFFE48006820F40000FC490860084667
:102DF0000068616B0843F949086000BF606B08B95F
:102E00004FF00108206800F40020B0F5002F13D126
:102E1000F2488430006820F44010E16B0843EF4929
:102E200084310860E06BB0F5801F01D14FF00108DC
:102E3000E06B08B94FF00109206800F48010B0F58C
:102E4000801F13D1E5488430006820F44000216CD5
:102E50000843E24984310860206CB0F5800F01D14D
:102E60004FF00108206C08B94FF00109206800F00C
:102E70008070B0F1807F01D14FF00108207800F020
:102E80002000202870D100BFD4483830006840F0BE
:102E90008050D249383108600846006800F0805000
:102EA000009000BF00BFCE48006840F48070CC495D
:102EB0000860FFF74FFE064607E0FFF74BFE801B5A
:102EC000642802D90320BDE8F883C548006800F4EF
:102ED00080700028F1D0C1486830006800F4407567
:102EE00085B3208E00F44070A8422BD0BB486830D8
:102EF000006820F44075B9486830006840F48030BC
:102F0000B649683108600846006820F480300860DF
:102F100008460560006800F0010098B1FFF71AFE4E
:102F2000064608E0FFF716FE801B41F28831884212
:102F300001D90320C7E7A94868300068C0F3400002
:102F40000028EFD000BF208E00F44070B0F5407F25
:102F50000BD1A248006820F4F810A24A216B11405E
:102F600008439E49086006E010E09C48006820F491
:102F7000F8109A490860994868300068218EC1F3BA
:102F80000B01084395496831086000BF207800F0C4
:102F90001000102810D100BF90488430006820F045
:102FA00080708E498431086008460068A16B084330
:102FB0008A498431086000BF208800F48040B0F561
:102FC000804F09D185488830006820F44030616E18
:102FD0000843824988310860208800F40040B0F539
:102FE000004F09D17D488830006820F44020A16E50
:102FF00008437A4988310860206800F48030B0F5D1
:10300000803F09D175488830006820F44010E16E97
:103010000843724988310860206800F40030B0F538
:10302000003F09D16D488830006820F44000216FCE
:1030300008436A4988310860207800F04000402841
:1030400009D166488830006820F00300616C0843AD
:10305000624988310860207800F08000802809D11A
:103060005E488830006820F00C00A16C08435B4982
:1030700088310860208800F48070B0F5807F09D125
:1030800056488830006820F03000E16C084353490E
:1030900088310860208800F40070B0F5007F09D105
:1030A0004E488830006820F0C000216D08434B492D
:1030B00088310860208800F48060B0F5806F09D105
:1030C00046488830006820F44070616D08434349E9
:1030D00088310860208800F40060B0F5006F09D1E5
:1030E0003E488830006820F44060A16D08433B49A9
:1030F00088310860208800F48050B0F5805F09D1E5
:1031000036488830006820F44050E16D0843334968
:1031100088310860208800F40050B0F5005F09D1C4
:103120002E488830006820F44040216E08432B4927
:1031300088310860206800F48000B0F5800F09D164
:1031400026488830006820F08060A16F084323493A
:1031500088310860206800F40010B0F5001F0FD11E
:103160001E488830006820F00060E16F08431B496A
:1031700088310860E06FB0F1006F01D14FF00109B4
:10318000207800F00800082801D14FF001092068DC
:1031900000F48020B0F5802F09D1104888300068F5
:1031A00020F04070616F08430C4988310860206846
:1031B00000F40000B0F5000F0AD10848883000681C
:1031C00020F08050D4F8801008430449883108600A
:1031D000B8F1010F0DD0206806E000000838024069
:1031E00000700040FFFCFF0F00F00070B0F1007FA6
:1031F0007DD1AD48006820F08060AB490860FFF7E2
:10320000A9FC064606E0FFF7A5FC801B642801D94F
:10321000032058E6A4480068C0F3C0600028F2D13B
:10322000207800F00100B8B1606BA8B99E488430E6
:103230000068C0F301459C4884300068C0F3036710
:103240006068800140EA054040EA0761207A41EA6F
:103250000070954984310860206800F40020B0F5C2
:10326000002F03D1E06BB0F5801F09D0206800F477
:103270008010B0F5801F24D1206CB0F5800F20D1D4
:10328000894884300068C0F301458748843000686D
:10329000C0F302776068800140EA0541207B41EA83
:1032A000006040EA07708049843108607E488C30B5
:1032B000006820F01F00616A491E08437A498C317A
:1032C0000860206800F08070B0F1807F17D17648E8
:1032D00084300068C0F30365734884300068C0F32D
:1032E000027760688101208A41EA004000E031E015
:1032F00040EA056040EA07706B4984310860206845
:1033000000F00070B0F1007F0DD160688101208A6B
:1033100041EA0041207B41EA0061207A41EA0070E5
:103320006149843108606048006840F080605E490F
:103330000860FFF70FFC064606E0FFF70BFC801B5A
:10334000642801D90320BEE557480068C0F3C06077
:103350000028F2D0B9F1010F7ED15348006820F067
:10336000805051490860FFF7F5FB064606E0FFF77D
:10337000F1FB801B642801D90320A4E54A480068BA
:10338000C0F340700028F2D1206800F40020B0F5AE
:10339000002F01D1E06B38B1206800F48010B0F547
:1033A000801F22D1206C00BB3F4888300068C0F3EA
:1033B00001453D4888300068C0F3027760698001AC
:1033C00040EA0541207E41EA006040EA0770364944
:1033D00088310860081D006820F4F851A06A401E7A
:1033E00041EA002030498C310860206800F4001068
:1033F000B0F5001F19D1E06FB0F1006F15D12A4868
:1034000088300068C0F30365274888300068C0F33F
:10341000027760698101208C41EA004040EA056042
:1034200040EA0770204988310860207800F00800E1
:10343000082820D11C4888300068C0F303651A486A
:1034400088300068C0F301476069800140EA0740A6
:1034500040EA0561207F00E024E041EA0070124963
:1034600088310860081D006820F44030E16A084394
:103470000D498C3108600C48006840F080500A49C2
:103480000860FFF767FB064606E0FFF763FB801B5B
:10349000642801D9032016E503480068C0F3407092
:1034A0000028F2D000200EE50038024070B5044636
:1034B0000D4600260CB9012070BD5C48006800F084
:1034C0000F00A8420ED25948006820F00F00284390
:1034D000564908600846006800F00F00A84201D075
:1034E0000120E9E7207800F0020002281DD12078B1
:1034F00000F00400042805D14D48006840F4E05075
:103500004B490860207800F00800082805D1484899
:10351000006840F46040464908604548006820F073
:10352000F000A168084342490860207800F00100DB
:1035300090B36068012807D13D4808380068C0F39F
:103540004040A0B90120B7E76068022807D1384899
:1035500008380068C0F3406048B90120ACE734483F
:1035600008380068C0F3400008B90120A4E73048DB
:10357000006820F00300616808432D490860FFF7E8
:10358000E9FA064609E0FFF7E5FA801B41F28831C7
:10359000884202D903208FE707E02548006800F041
:1035A0000C006168B0EB810FEDD12048006800F09D
:1035B0000F00A8420ED91D48006820F00F002843D4
:1035C0001A4908600846006800F00F00A84201D0C0
:1035D000012071E7207800F00400042807D1144886
:1035E000006820F4E050E168084311490860207841
:1035F00000F00800082808D10D48006820F4604059
:10360000216940EAC1000A49086000F061F80849F0
:103610000968C1F30311074A515CC84006490860B4
:1036200006480068FFF7BCFA002045E7003C02406E
:103630000838024018EA00085C06002064060020F2
:103640000F2202600D4A126802F0030242600B4A28
:10365000126802F0F0028260084A126802F4E05236
:10366000C260064A126802F46042D2080261044A4B
:10367000126802F00F020A6070470000083802402A
:10368000003C024001480068704700005C060020D2
:1036900000B5FFF7F7FF04490968C1F38221034A27
:1036A000515CC84000BD00000838024028EA00080C
:1036B00000B5FFF7E7FF04490968C1F34231034A47
:1036C000515CC84000BD00000838024028EA0008EC
:1036D0002DE9F047002400250026A1462548006872
:1036E00000F00C0020B1042805D008283AD105E0EC
:1036F000DFF8849039E0DFF8849036E01D48001F41
:10370000006800F03F041B48001F006800F48000C0
:1037100078B11A481749091F0968C1F38811A0FB3D
:1037200001700146224600233846FCF75CFE054640
:103730000EE011480F49091F0968C1F38811A0FB69
:1037400001700146224600233846FCF74CFE054630
:103750000848001F0068C0F30140401C4600B5FB4C
:10376000F6F902E0DFF8109000BF00BF4846BDE860
:10377000F0870000083802400024F40040787D0102
:10378000F8B5044600270CB90120F8BD207800F0F8
:103790000100002871D0F948006800F00C000428EE
:1037A0000DD0F648006800F00C00082813D1F3484B
:1037B000001F006800F48000B0F5800F0BD1EF48C7
:1037C00008380068C0F34040002869D060680028CD
:1037D00066D10120D9E700BF6068B0F5803F08D10D
:1037E000E6480838006840F48030E4490839086049
:1037F0002EE0606868B9E1480838006820F480303D
:10380000DE49083908600846006820F48020086016
:103810001EE06068B0F5A02F0DD1D84808380068C8
:1038200040F48020D549083908600846006840F413
:10383000803008600CE0D1480838006820F48030FF
:10384000CE49083908600846006820F480200860E6
:1038500000BF606890B1FFF77DF9054606E0FFF70D
:1038600079F9401B642801D903208EE7C348083842
:103870000068C0F340400028F1D011E0FFF76AF97A
:10388000054606E0FFF766F9401B642801D90320CE
:103890007BE7BA4808380068C0F340400028F1D1FF
:1038A000207800F00200022869D1B448006800F0D6
:1038B0000C0058B1B148006800F00C0008281CD179
:1038C000AE48001F006800F48000B0B9AB4808386B
:1038D0000068C0F3400020B1E068012801D0012059
:1038E00053E7A6480838006820F0F800216940EA4C
:1038F000C100A2490839086041E0E06828B39F4848
:103900000838006840F001009C4908390860FFF75A
:1039100021F9054606E0FFF71DF9401B022801D9F1
:10392000032032E7954808380068C0F340000028BB
:10393000F1D092480838006820F0F800216940EA88
:10394000C1008E490839086019E08C4808380068C1
:1039500020F00100894908390860FFF7FBF80546A7
:1039600006E0FFF7F7F8401B022801D903200CE717
:10397000824808380068C0F340000028F1D1207860
:1039800000F00800082836D16069D0B17B486C305F
:10399000006840F0010079496C310860FFF7DAF8FF
:1039A000054606E0FFF7D6F8401B022801D90320A0
:1039B000EBE672486C300068C0F340000028F1D09C
:1039C00019E06E486C30006820F001006B496C31E2
:1039D0000860FFF7BFF8054606E0FFF7BBF8401B9D
:1039E000022801D90320D0E664486C300068C0F397
:1039F00040000028F1D1207800F00400042874D1A0
:103A00005E483830006800F0805080B900BF5B48E5
:103A10003830006840F08050584938310860084616
:103A2000006800F08050009000BF00BF012754489C
:103A3000006800F48070B0B95148006840F48070AC
:103A40004F490860FFF786F8054606E0FFF782F861
:103A5000401B642801D9032097E64948006800F418
:103A600080700028F2D000BFA068012808D1434828
:103A70006830006840F001004049683108602DE07E
:103A8000A06868B93D486830006820F001003B49F3
:103A9000683108600846006820F0040008601DE0F6
:103AA000A06805280DD135486830006840F0040052
:103AB0003249683108600846006840F0010008603B
:103AC0000CE02E486830006820F001002B49683176
:103AD00008600846006820F00400086000BFA06885
:103AE000A8B1FFF737F8054609E02EE0FFF732F8F6
:103AF000401B41F28831884201D9032045E61F4826
:103B000068300068C0F340000028EFD013E0FFF7F2
:103B100021F8054608E0FFF71DF8401B41F2883107
:103B2000884201D9032030E6144868300068C0F3A9
:103B300040000028EFD1012F07D11048383000682D
:103B400020F080500D4938310860A069002852D01B
:103B50000A48006800F00C00082865D0A069022817
:103B60004AD106480838006820F0807003490839B7
:103B70000860FEF7EFFF05460BE000000838024042
:103B800000700040FEF7E6FF401B022801D9032029
:103B9000FBE53B480068C0F340600028F2D1E069D3
:103BA00040F00050216A0843616A40EA8111012215
:103BB000A06AC2EB500041EA00412C20005D41EABE
:103BC00000602F49091D0860081F006840F08070E0
:103BD000091F0860FEF7BEFF054606E0FEF7BAFFC4
:103BE000401B022801D90320CFE525480068C0F317
:103BF00040600028F2D040E02148006820F080704A
:103C00001F490860FEF7A6FF054606E0FEF7A2FF83
:103C1000401B022801D90320B7E519480068C0F30A
:103C200040600028F2D128E01548001D0668A06910
:103C3000012820D006F48001E06981421BD106F002
:103C40003F01206A814216D147F6C0703040616A58
:103C5000B0EB811F0FD106F440310122A06AC2EB04
:103C60005000B1EB004F06D106F070612C20005DD2
:103C7000B1EB006F01D0012087E5002085E5000051
:103C800000380240704770477047000010B5034687
:103C9000002200BF93F83C00012801D1022010BD92
:103CA000012083F83C0000BF22F0FF00CC6840EA0E
:103CB000040222F440708C6840EA040222F480601E
:103CC0004C6840EA040222F400600C6840EA0402F6
:103CD00022F480500C6940EA040222F400504C693E
:103CE00040EA040222F480408C6A40EA040222F492
:103CF00070200C8B40EA04420F4C1868A04203D09D
:103D00000E4C1868A0420ED122F470008C8C40EA50
:103D1000045222F08070CC6940EA040222F0007064
:103D20000C6A40EA04021868426400BF002083F86D
:103D30003C0000BF00BFB2E70000014000040140AA
:103D400030B502460B4600BF92F83C00012801D175
:103D5000022030BD012082F83C0000BF022082F822
:103D60003D001068416810688468214D1068A842C1
:103D700003D0204D1068A84203D121F47001586887
:103D8000014321F070011868014310684160184D2B
:103D90001068A8421BD01068B0F1804F17D0164DA4
:103DA0001068A84213D0154D1068A8420FD0144DCA
:103DB0001068A8420BD00F4D1068A84207D0114DD3
:103DC0001068A84203D0104D1068A84205D124F015
:103DD00080049868044310688460012082F83D00E4
:103DE00000BF002082F83C0000BF00BFB1E7000028
:103DF00000000140000401400004004000080040B1
:103E0000000C0040004001400018004010B504467E
:103E10000CB9012010BD94F83D0028B9002084F8A9
:103E20003C00204600F02AF8022084F83D00211DC5
:103E3000206804F0D9FB012084F8480000BF84F812
:103E40003E0001213F2001554020015541200155F0
:103E5000422001554320015500BF00BF012084F8D6
:103E6000440045200155462001554720015500BF1B
:103E7000012084F83D000020CCE7000038B504465E
:103E800025492068884216D100BF2448006840F0C8
:103E90000100224908600846006800F00100009017
:103EA00000BF00BF002205211920FEF7F3FE1920F4
:103EB000FEF7E0FE2FE02068B0F1804F0FD100BF89
:103EC0001648001F006840F001001449091F0860EF
:103ED0000846006800F00100009000BF1BE0104998
:103EE0002068884217D100BF0C48001F006840F0CE
:103EF00010000A49091F08600846006800F0100019
:103F0000009000BF00BF002207213620FEF7C2FE4E
:103F10003620FEF7AFFE38BD0000014044380240B5
:103F200000100040014691F83D00012801D0012019
:103F30007047022081F83D001C4B086898421BD056
:103F40000868B0F1804F17D0194B0868984213D019
:103F5000184B086898420FD0174B086898420BD04E
:103F6000164B0868984207D0154B0868984203D052
:103F7000144B0868984210D108688068124B00EA18
:103F80000302062A0FD0B2F5803F0CD00868006803
:103F900040F001000B68186005E00868006840F018
:103FA00001000B6818600020C2E70000000001401B
:103FB0000004004000080040000C004000040140E4
:103FC000004001400018004007000100014691F840
:103FD0003D00012801D001207047022081F83D00FA
:103FE0000868C06840F001000B68D8601C4B086886
:103FF00098421BD00868B0F1804F17D0194B086861
:10400000984213D0184B086898420FD0174B086895
:1040100098420BD0164B0868984207D0154B086899
:10402000984203D0144B0868984210D10868806801
:10403000124B00EA0302062A0FD0B2F5803F0CD0E3
:104040000868006840F001000B68186005E0086827
:10405000006840F001000B6818600020BCE7000019
:10406000000001400004004000080040000C004037
:10407000000401400040014000180040070001001A
:104080002DE9F04104460D4600BF94F83C0001289C
:1040900002D10220BDE8F081012084F83C0000BF7D
:1040A000022084F83D00206886683748064026F4E0
:1040B0007F46206886602868502833D00CDC202892
:1040C00050D004DC00284BD0102851D149E03028D2
:1040D00049D040284CD139E060282DD0702807D035
:1040E000B0F5805F03D0B0F5005F41D10DE040E056
:1040F000D5E902136A68206804F0F3FA206886683C
:1041000046F077062068866033E0D5E902136A68D6
:10411000206804F0E6FA2068806840F48040216856
:10412000886026E0EA686968206804F025FC502170
:10413000206804F0E1FA1CE0EA686968206804F08D
:1041400077FC6021206804F0D7FA12E0EA68696819
:10415000206804F011FC4021206804F0CDFA08E04A
:1041600000BF00BF00BF2968206804F0C5FA00E066
:1041700000BF00BF012084F83D0000BF002084F88C
:104180003C0000BF00BF85E788FFFEFF70B52DED46
:104190000A8B04469FEDFE0BB0EE408AF0EE608A7B
:1041A000FD488068A04277D1217FFB48007B814297
:1041B000F9D1FA48408800286FD10120F74948809A
:1041C000F54A1169906801F023FDF5494860002027
:1041D000F4494860F04A91881068FEF7ADFC18B9C0
:1041E0000120F149486003E04FF0FF30EE4948609C
:1041F00000BFE948006950B9E74880680068006A74
:1042000020F00A00E44989680968086227E0E2486A
:10421000006904280AD1E04880680068006A20F03C
:10422000A000DD4989680968086218E0DA48006979
:1042300008280AD1D84880680068006A20F4206005
:10424000D54989680968086209E0D3488068006830
:10425000006A20F42040D049896809680862CE4885
:10426000006950B9CC4880680068006A40F00200DC
:10427000C94989680968086229E0C74800690428B3
:104280000CD1C54880680068006A40F02000C2492F
:104290008968096808621AE059E119E0BE480069B6
:1042A00008280AD1BC4880680068006A40F40070A1
:1042B000B94989680968086209E0B74880680068F8
:1042C000006A40F40050B4498968096808623DE119
:1042D0000020B2494880B04A1169906801F098FC0A
:1042E000B2494860B049486809F0F5FF41EC1A0B43
:1042F000AE494968AA4A5268891AAA4A526842F2E3
:10430000107303FB021009F0E6FF41EC1C0B53ECA9
:104310001C2B9FEDA70B51EC100B09F0EBFD41ECB2
:104320001B0B53EC1A2B0AF03DF841EC190BA24879
:1043300090ED021BB0EE410AF0EE610A53EC102B37
:1043400051EC190B09F022FD9B4AC2E90201002041
:104350009449486099484088401C00B29749488079
:1043600000BF8D48006950B98B4880680068006ABA
:1043700020F00A00884989680968086227E08648B1
:10438000006904280AD1844880680068006A20F027
:10439000A000814989680968086218E07E480069C0
:1043A00008280AD17C4880680068006A20F42060F0
:1043B000794989680968086209E077488068006877
:1043C000006A20F4204074498968096808627248CC
:1043D000006940B9704880680068006A6E49896861
:1043E0000968086221E06C480069042808D16A481D
:1043F00080680068006A684989680968086214E092
:1044000065480069082808D1634880680068006A28
:10441000614989680968086207E05F488068006848
:10442000006A5D4989680968086200BF644840689D
:10443000401C634948606149B1F9020009F04BFF33
:1044400041EC190B9FED5F0B53EC102B09F0AAFE0A
:104450007CD15E484068A8B901205C494860564854
:1044600090ED021BB0EE410AF0EE610A9FED551B84
:1044700053EC112B51EC100B09F03CFD544AC2E9EE
:10448000020154E04C4890ED021BB0EE410AF0EE00
:10449000610A51EC100B09F03BFC41EC190B9FED4C
:1044A000490B53EC102B09F025FD41EC180B484843
:1044B00090ED021BB0EE410AF0EE610A53EC102BB6
:1044C00051EC180B09F062FC41EC1A0BB0EE4A0AF1
:1044D000F0EE6A0A05F080F9B0EE409AF0EE609ACC
:1044E0009FED3C0B53EC102B51EC190B09F01EFF08
:1044F0001DD3374890ED021BB0EE410AF0EE610A81
:1045000053EC102B51EC180B09F040FC41EC180B4C
:1045100051EC180B09F0FCFB41EC190B9FED2F0B34
:1045200053EC102B09F0E6FC294AC2E902019FED89
:10453000180BB0EE408AF0EE608A00201F494880D8
:104540009FED130B1C4880ED020BC0E6FEE12548F1
:104550008068A0426FD1217F2248007B8142F9D13F
:104560000E488088002867D101200C4988801D4AA8
:104570001169906801F04CFB0949886000200949E5
:104580008860184A91881068FEF7D6FA60BB2CE064
:104590000000000000000000281100205815002035
:1045A00064150020A01500208C150020781500202F
:1045B00000000000006AF840B8150020E015002057
:1045C000001600200000000000002440EC15002030
:1045D0003015002000000000000034400000000002
:1045E000000000404811002003E00120FB498860E2
:1045F00003E04FF0FF30F949886000BFF8480069D8
:1046000050B9F74880680068006A20F00A00F44951
:1046100089680968086229E0F148006904280CD11A
:10462000EF4880680068006A20F0A000EC498968C3
:10463000096808621AE08AE14FE0E9480069082841
:104640000AD1E74880680068006A20F42060E449E5
:1046500089680968086209E0E14880680068006AC2
:1046600020F42040DE49896809680862DC48006956
:1046700050B9DB4880680068006A40F00200D84901
:1046800089680968086227E0D548006904280AD1CA
:10469000D34880680068006A40F02000D0498968EB
:1046A0000968086218E0CE48006908280AD1CC4899
:1046B00080680068006A40F40070C9498968096828
:1046C000086209E0C64880680068006A40F400504B
:1046D000C349896809680862F9E50020C1498880F2
:1046E000BF4A1169906801F093FABF498860BB49DD
:1046F000886809F0F0FD41EC1A0BBB498968BB4A98
:104700009268891ABA4A926842F2107303FB021047
:1047100009F0E1FD41EC1C0B53EC1C2B1FED5C0B75
:1047200051EC100B09F0E6FB41EC1B0B53EC1A2B80
:1047300009F038FE41EC190BAE4890ED041BB0EEC9
:10474000410AF0EE610A53EC102B51EC190B09F001
:104750001DFBA84AC2E904010020A5498860A648BB
:104760008088401C00B2A449888000BF9C48006932
:1047700050B99B4880680068006A20F00A00984998
:1047800089680968086227E09548006904280AD109
:10479000934880680068006A20F0A000904989680A
:1047A0000968086218E08E48006908280AD18C4818
:1047B00080680068006A20F4206089498968096877
:1047C000086209E0864880680068006A20F420409A
:1047D00083498968096808628148006940B980484E
:1047E00080680068006A7E4989680968086221E07B
:1047F0007B480069042808D1794880680068006A0D
:10480000774989680968086214E0754800690828D2
:1048100008D1734880680068006A7149896809682E
:10482000086207E06E4880680068006A6C49896821
:104830000968086200BF71488068401C6F49886041
:104840006D49B1F9040009F046FD41EC190B1FED6B
:10485000A30B53EC102B09F0A5FC77D168488068B6
:10486000A8B9012066498860624890ED041BB0EE4B
:10487000410AF0EE610A1FEDAD1B53EC112B51EC18
:10488000100B09F037FB5F4AC2E9040150E05948B8
:1048900090ED041BB0EE410AF0EE610A1FEDB71B6C
:1048A00053EC112B51EC100B09F024FB41EC180BCD
:1048B000544890ED041BB0EE410AF0EE610A53EC4F
:1048C000102B51EC180B09F061FA41EC1A0BB0EE09
:1048D0004A0AF0EE6A0A04F07FFFB0EE409AF0EE6A
:1048E000609A1FEDC40B53EC102B51EC190B09F01F
:1048F0001DFD1DD3434890ED041BB0EE410AF0EEC0
:10490000610A53EC102B51EC180B09F03FFA41EC03
:10491000180B51EC180B09F0FBF941EC190B1FEDCA
:10492000D10B53EC102B09F0E5FA364AC2E9040129
:104930001FEDE90BB0EE408AF0EE608A00202E49B0
:1049400088801FEDED0B2B4880ED040BE7E32E482C
:104950008068A0427ED1217F2B48007B8142F9D123
:104960002048C088002876D101201E49C880264AE8
:104970001169906801F04CF91C49C86000201C497D
:10498000C860214A91881068FEF7D6F820B94FF028
:10499000FF301249C86002E001201049C86000BF22
:1049A0001948006950B9184880680068006A20F00A
:1049B0000A00154989680968086240E012480069E0
:1049C000042823D1104880680068006A20F0A00005
:1049D0000D4989680968086231E000008C150020E3
:1049E000481100205815002078150020641500207B
:1049F000A0150020B8150020E015002000160020AA
:104A0000EC1500203015002068110020FC480069DA
:104A100008280AD1FA4880680068006A20F42060FB
:104A2000F74989680968086209E0F5488068006804
:104A3000006A20F42040F249896809680862F04859
:104A4000006968B9EE4880680068006A40F00200BA
:104A5000EB4901E067E12CE089680968086227E01A
:104A6000E748006904280AD1E54880680068006AC0
:104A700040F02000E24989680968086218E0E048CF
:104A8000006908280AD1DE4880680068006A40F49E
:104A90000070DB4989680968086209E0D8488068C5
:104AA0000068006A40F40050D549896809680862C6
:104AB00035E30020D349C880D14A1169906801F0DC
:104AC000A7F8D149C860D149C86809F004FC41EC95
:104AD0001A0BCD49C968CE4AD268891ACD4AD26824
:104AE00042F2107303FB021009F0F5FB41EC1C0BC2
:104AF00053EC1C2B9FEDC80B51EC100B09F0FAF98D
:104B000041EC1B0B53EC1A2B09F04CFC41EC190B3C
:104B1000C34890ED061BB0EE410AF0EE610A53EC7B
:104B2000102B51EC190B09F031F9BD4AC2E906010D
:104B30000020B849C860BB48C088401C00B2B949D1
:104B4000C88000BFAE48006950B9AD4880680068B1
:104B5000006A20F00A00AA4989680968086227E00B
:104B6000A748006904280AD1A54880680068006A3F
:104B700020F0A000A24989680968086218E0A048EE
:104B8000006908280AD19E4880680068006A20F4FD
:104B900020609B4989680968086209E09848806834
:104BA0000068006A20F42040954989680968086215
:104BB0009348006940B9924880680068006A90494B
:104BC00089680968086221E08D480069042808D1D5
:104BD0008B4880680068006A8949896809680862AA
:104BE00014E087480069082808D185488068006873
:104BF000006A834989680968086207E0804880681C
:104C00000068006A7E4989680968086200BF8648B2
:104C1000C068401C8449C8608249B1F9060009F0A7
:104C20005AFB41EC190B9FED810B53EC102B09F053
:104C3000B9FA77D17F48C068A8B901207D49C8601A
:104C4000774890ED061BB0EE410AF0EE610A9FED49
:104C5000771B53EC112B51EC100B09F04BF9764AF2
:104C6000C2E9060150E06E4890ED061BB0EE410A25
:104C7000F0EE610A9FED6D1B53EC112B51EC100B04
:104C800009F038F941EC180B6B4890ED061BB0EEBB
:104C9000410AF0EE610A53EC102B51EC180B09F0AD
:104CA00075F841EC1A0BB0EE4A0AF0EE6A0A04F00D
:104CB00093FDB0EE409AF0EE609A9FED600B53ECDE
:104CC000102B51EC190B09F031FB1DD35A4890ED14
:104CD000061BB0EE410AF0EE610A53EC102B51ECCA
:104CE000180B09F053F841EC180B51EC180B09F0B4
:104CF0000FF841EC190B9FED530B53EC102B09F0FF
:104D0000F9F84D4AC2E906019FED500BB0EE408A1A
:104D1000F0EE608A00204349C8809FED4C0B40486C
:104D200080ED060BFBE14B488068A042FAD1217F61
:104D30004848007B8142F5D132480089C0BB012040
:104D400030490881434A1169906800F061FF304999
:104D5000086100202F4908613E4A91881068FDF7DC
:104D6000EBFE18B901202949086103E04FF0FF303C
:104D70002649086100BF3748006950B93548806846
:104D80000068006A20F00A003249896809680862F0
:104D900028E03048006904280BD12E48806800685C
:104DA000006A20F0A0002B4989680968086219E0B0
:104DB0007CE02848006908280AD1264880680068F5
:104DC000006A20F42060234989680968086209E0C4
:104DD000204880680068006A20F420401D498968E6
:104DE000096808621B480069B0BB1A4880680068FF
:104DF000006A40F00200174989680968086254E0B7
:104E00006811002058150020781500208C1500200E
:104E100064150020A015002000000000006AF84082
:104E2000B8150020E015002000160020000000004A
:104E300000002440EC150020301500200000000088
:104E400000003440000000000000004000000000AE
:104E50000000000088110020FFE7DA4800690428FC
:104E60000AD1D84880680068006A40F02000D5491F
:104E700089680968086218E0D248006908280AD1E0
:104E8000D04880680068006A40F40070CD498968A5
:104E90000968086209E0CB4880680068006A40F44D
:104EA0000050C84989680968086238E10020C6498D
:104EB0000881C44A1169906800F0AAFEC3490861DC
:104EC000C349086909F007FA41EC1A0BBF4909699F
:104ED000C04A1269891AC04A126942F2107303FB70
:104EE000021009F0F8F941EC1C0B53EC1C2B1FEDE0
:104EF000360B51EC100B08F0FDFF41EC1B0B53EC93
:104F00001A2B09F04FFA41EC190BB44890ED081B2D
:104F1000B0EE410AF0EE610A53EC102B51EC190B84
:104F200008F034FFAD4AC2E908010020AA4908612F
:104F3000AB480089401C00B2A949088100BFA148C4
:104F4000006950B99F4880680068006A20F00A0034
:104F50009C4989680968086227E09A480069042822
:104F60000AD1984880680068006A20F0A00095493E
:104F700089680968086218E09248006908280AD11F
:104F8000904880680068006A20F420608D49896834
:104F90000968086209E08B4880680068006A20F4AC
:104FA000204088498968096808628648006940B9D4
:104FB000844880680068006A8249896809680862D4
:104FC00021E080480069042808D17E488068006894
:104FD000006A7C4989680968086214E079480069B8
:104FE000082808D1774880680068006A7549896890
:104FF0000968086207E0734880680068006A7149C0
:1050000089680968086200BF76480069401C7549D4
:1050100008617349B1F9080009F05DF941EC190B19
:105020001FED7E0B53EC102B09F0BCF877D16E48C6
:105030000069A8B901206C490861684890ED081B17
:10504000B0EE410AF0EE610A1FED881B53EC112B04
:1050500051EC100B08F04EFF644AC2E9080150E021
:105060005E4890ED081BB0EE410AF0EE610A1FEDBC
:10507000911B53EC112B51EC100B08F03BFF41EC52
:10508000180B5A4890ED081BB0EE410AF0EE610A89
:1050900053EC102B51EC180B08F078FE41EC1A0B76
:1050A000B0EE4A0AF0EE6A0A04F096FBB0EE409ABF
:1050B000F0EE609A1FED9F0B53EC102B51EC190B87
:1050C00009F034F91DD3494890ED081BB0EE410AB0
:1050D000F0EE610A53EC102B51EC180B08F056FE61
:1050E00041EC180B51EC180B08F012FE41EC190BB7
:1050F0001FEDAC0B53EC102B08F0FCFE3B4AC2E951
:1051000008011FEDAE0BB0EE408AF0EE608A002081
:10511000334908811FEDB30B304880ED080B34484C
:105120000068401C3249086008460068B0F5C87F36
:1051300044D11FEDBA0B2F4880ED000B0020086012
:10514000012521E0274951F8250009F0C4F841EC78
:105150001A0BB0EE4A0AF0EE6A0A04F03DFBB0EE1C
:10516000409AF0EE609A234890ED000B53EC102B20
:1051700051EC190B08F00AFE1E4A03C2002019491F
:1051800041F82500681CC5B2042DDBDD9FED1A0B2C
:1051900053EC102B174890ED000B51EC100B08F05E
:1051A000A9FE41EC190B164890ED000B53EC102BA7
:1051B00051EC190B08F0EAFD114A03C2BDEC0A8B51
:1051C00070BD0000881100205815002078150020BF
:1051D0008C15002064150020A0150020B8150020B3
:1051E000E015002000160020EC15002030150020EE
:1051F000B0030020A80300200000000000001040C1
:10520000A00300202DE9F04104460D46164600BFDC
:1052100094F83C00012802D10220BDE8F081012071
:1052200084F83C0000BF96B9EB68D5E9001220680D
:1052300003F0B6FB2068806920F00C0021688861CB
:1052400020688069A9680843216888613DE0042ED0
:1052500013D1EB68D5E90012206803F0FDFB20684C
:10526000806920F440602168886120688069A968AD
:1052700040EA01202168886127E0082E12D1EB68FE
:10528000D5E90012206803F004FC2068C06920F012
:105290000C002168C8612068C069A96808432168BA
:1052A000C86112E0EB68D5E90012206803F00DFC3C
:1052B0002068C06920F440602168C8612068C06926
:1052C000A96840EA01202168C86100BF002084F875
:1052D0003C0000BF00BFA0E710B504460CB9012098
:1052E00010BD94F83D0028B9002084F83C00204609
:1052F00000F02AF8022084F83D00211D206803F008
:1053000073F9012084F8480000BF84F83E000121B1
:105310003F200155402001554120015542200155B3
:105320004320015500BF00BF012084F84400452000
:105330000155462001554720015500BF012084F842
:105340003D000020CCE7000010B586B004461421D3
:1053500001A8FBF7E0FA4549206888424DD100BF1B
:105360004348006840F00200414908600846006870
:1053700000F00200009000BF00BF00BF3C481038A2
:10538000006840F001003A4910390860084600689A
:1053900000F00100009000BF00BF00BF0846006899
:1053A00040F0020008600846006800F0020000902B
:1053B00000BF00BF40200190022002900020039017
:1053C00004900220059001A92A48FDF7A9FA0120BE
:1053D000019002200290002003900490022005908A
:1053E00001A92548FDF79CFA002206211D20FDF7A2
:1053F00051FC1D20FDF73EFC36E020492068884224
:1054000032D100BF1A48006840F00800184908600F
:105410000846006800F00800009000BF00BF00BF11
:1054200013481038006840F0010011491039086035
:105430000846006800F00100009000BF00BF052092
:105440000190022002900020039004900220059019
:1054500001A90848FDF764FA002206213220FDF771
:1054600019FC3220FDF706FC06B010BD0004004018
:10547000403802400000024000040240000C00409E
:105480002DE9F04104460D4615B994F83E0015E0AB
:10549000042D02D13F20005D10E0082D02D14020F4
:1054A000005D0BE00C2D02D14120005D06E0102DC7
:1054B00002D14220005D01E04320005D074615B99E
:1054C00094F844000BE0042D02D14520005D06E075
:1054D000082D02D14620005D01E04720005D804696
:1054E000012F02D1B8F1010F02D00120BDE8F081F7
:1054F0001DB9022084F83E001AE0042D03D10221D8
:105500003F20015514E0082D03D102214020015510
:105510000EE00C2D03D102214120015508E0102D91
:1055200003D102214220015502E00221432001550E
:105530001DB9022084F844000EE0042D03D102219D
:105540004520015508E0082D03D1022146200155D0
:1055500002E002214720015535B1042D0BD0082D62
:1055600010D00C2D1CD114E02068C06840F002005F
:105570002168C86015E02068C06840F00400216818
:10558000C8600EE02068C06840F008002168C8606C
:1055900007E02068C06840F010002168C86000E0A3
:1055A00000BF00BF01222946206803F089F81C498A
:1055B000206888421BD02068B0F1804F17D019496D
:1055C0002068884213D01849206888420FD01749B4
:1055D000206888420BD016492068884207D01549B8
:1055E0002068884203D014492068884210D120687E
:1055F0008068124900EA0106062E0FD0B6F5803FFA
:105600000CD02068006840F001002168086005E0C7
:105610002068006840F0010021680860002065E70C
:10562000000001400004004000080040000C004061
:105630000004014000400140001800400700010044
:1056400010B5044620680069C0F34000D8B1206856
:10565000C068C0F34000B0B16FF00200216808617B
:10566000012020772068806900F0030018B12046EF
:10567000FEF78CFD05E0204600F02CF9204600F0F6
:1056800016FA0020207720680069C0F38000D8B1A6
:105690002068C068C0F38000B0B16FF004002168DA
:1056A0000861022020772068806900F4407018B1FA
:1056B0002046FEF76BFD05E0204600F00BF9204682
:1056C00000F0F5F90020207720680069C0F3C000E1
:1056D000D8B12068C068C0F3C000B0B16FF0080056
:1056E00021680861042020772068C06900F0030069
:1056F00018B12046FEF74AFD05E0204600F0EAF822
:10570000204600F0D4F90020207720680069C0F31B
:105710000010D8B12068C068C0F30010B0B16FF0BD
:10572000100021680861082020772068C06900F413
:10573000407018B12046FEF729FD05E0204600F034
:10574000C9F8204600F0B3F90020207720680069EE
:1057500000F0010058B12068C06800F0010030B1CD
:105760006FF0010021680861204600F043FA2068CC
:105770000069C0F3C01058B12068C068C0F3C01001
:1057800030B16FF08000216808612046FEF77BFA97
:1057900020680069C0F3002058B12068C068C0F3D9
:1057A000C01030B16FF48070216808612046FEF7A8
:1057B00069FA20680069C0F3801058B12068C06899
:1057C000C0F3801030B16FF04000216808612046BE
:1057D00000F037FA20680069C0F3401058B1206823
:1057E000C068C0F3401030B16FF02000216808613C
:1057F0002046FEF749FA10BD10B586B004461421C4
:1058000001A8FBF788F82E49206888421CD100BF08
:105810002C48006840F010002A49086008460068DB
:1058200000F01000009000BF00BF4FF4D440019082
:10583000022002900020039004900120059001A90D
:105840002148FDF76DF839E02068B0F1804F35D17F
:1058500000BF1C48006840F001001A490860084673
:10586000006800F00100009000BF00BF00BF0846C4
:10587000006840F0020008600846006800F002007E
:10588000009000BF00BF2020019002200290002065
:10589000039004900120059001A90C48FDF740F801
:1058A00040F60840019002200290002003900490EE
:1058B0000120059001A90648FDF732F806B010BD99
:1058C0000000014030380240001002400000024059
:1058D00000040240704770B504460D46164600BFEE
:1058E00094F83C00012801D1022070BD012084F809
:1058F0003C0000BF0C2E51D005DC4EB1042E1ED052
:10590000082E7AD133E0102E60D0142EF9D175E034
:105910002946206802F0FAFE2068806940F00800FD
:10592000216888612068806920F00400216888610E
:1059300020688069296908432168886177E02946E1
:10594000206802F01DFF2068806940F40060216833
:1059500088612068806920F48060216888612068FF
:105960008069296940EA0120216888615FE0294651
:10597000206802F045FF2068C06940F008002168F7
:10598000C8612068C06920F004002168C8612068EF
:10599000C069296908432168C86148E02946206830
:1059A00002F06CFF2068C06940F400602168C861A3
:1059B0002068C06920F480602168C8612068C069DF
:1059C000296940EA01202168C86130E02946206841
:1059D00002F080FF2068406D40F0080021684865B3
:1059E0002068406D20F00400216848652068406D03
:1059F000296908432168486519E017E029462068AD
:105A000002F090FF2068406D40F400602168486516
:105A10002068406D20F48060216848652068406DF2
:105A2000296940EA01202168486500E000BF00BF05
:105A300000BF002084F83C0000BF00BF55E710B550
:105A400004460CB9012010BD94F83D0028B900208F
:105A500084F83C00204600F029F8022084F83D003C
:105A6000211D206802F0C0FD012084F8480000BF1D
:105A700084F83E0001213F2001554020015541207E
:105A80000155422001554320015500BF00BF0120B0
:105A900084F8440045200155462001554720015512
:105AA00000BF012084F83D000020CCE7704770471C
:105AB00070B504460D4615B994F83E0015E0042D66
:105AC00002D13F20005D10E0082D02D14020005D92
:105AD0000BE00C2D02D14120005D06E0102D02D11B
